:100000000C9409010C9431010C9431010C943101D0
:100010000C9431010C9431010C9431010C94310198
:100020000C9431010C94030D0C9431010C943101AA
:100030000C9431010C94AB080C9431010C943101F7
:100040000C9431010C9431010C948A0C0C94C20C68
:100050000C9431010C9431010C9431010C94310158
:100060000C9431010C9431010104520452045204E5
:1000700052045204520452045204520452045204D0
:1000800052045204520452045204520452045204C0
:1000900052045204520452045204520452045204B0
:1000A00052045204520452045204520452045204A0
:1000B0005204520452045204520452045204520490
:1000C0005204520452045204520452045204520480
:1000D0005204520452045204520452045204520470
:1000E0005204520452045204520452045204520460
:1000F0005204520452045204520452045204520450
:10010000520452045204520452045204520452043F
:10011000520452045204520452045204520452042F
:10012000520452045204520452045204520452041F
:10013000520452045204520452045204520452040F
:1001400052045204520452045204520452045204FF
:1001500052045204520452045204520452045204EF
:10016000520452045204520452041204520452041F
:100170005204520415041804520452045204520446
:1001800052045204520452045204520452045204BF
:1001900052045204520452045204520452045204AF
:1001A000520452045204520452045204520452049F
:1001B000520452045204520452045204520452048F
:1001C00052045204520452041D0420045204230415
:1001D00026042E043104340437043A043D04400458
:1001E0004304520452045204520446044904520483
:1001F00052044C044F040A0610061306160619068C
:100200001C061F062206250628062B062E06A00D14
:10021000A10D11241FBECFEFD8E0DEBFCDBF11E08E
:10022000A0E0B1E0E0E4FBE202C005900D92A03452
:10023000B107D9F712E0A0E4B1E001C01D92AF38D8
:10024000B107E1F712E0C0E1D2E004C02297FE015D
:100250000E946014CE30D107C9F70E94E4030C94C9
:1002600093150C940000809124018F5F80932401EA
:1002700008950F931F93CF93DF938091470190913F
:100280004801009709F465C080914501882321F059
:1002900080914301882339F480E090E060E070E0D1
:1002A0000E94720B56C080E00E94BA0B81E892E077
:1002B00061E00E94A60DEC0181E00E94BA0BC05DD6
:1002C000D74080914101909142018E01081B190B8A
:1002D000D0934201C0934101E0914601F0E030919A
:1002E000450120E0EC9FC001ED9F900DFC9F900D1B
:1002F0001124632F722F0E94D713EB010E9FC001B0
:100300000F9F900D1E9F900D1124632F722F0E943E
:10031000D7132091250130E0C60FD71F2C173D07BA
:100320000CF4E90144275527421B530BC417D5078A
:100330000CF4EA01DD233CF4C9018C0F9D1FB901C7
:100340000E94720B06C0B9016C1B7D0BC9010E9493
:10035000720BDF91CF911F910F9108950CC00E94F5
:100360005F0C0E941A090E948F0B9091400189171F
:1003700011F40E9439010E948F0B9091400189175E
:1003800071F3E9EBF1E0E90FF11D80819F5F90933C
:100390004001943610F01092400108958091400180
:1003A0008150809340018F3F19F483E68093400190
:1003B000089580E0089581E00895CF93C82F0E94AA
:1003C000DB018823A9F480E091E00E94A8080E9444
:1003D0006C0A84E091E00E94980A80E061E00E944B
:1003E0003C0A8C2F0E94880A0E94CE0181E001C045
:1003F00080E0CF9108958DE091E066E00E94870C47
:1004000080E090E060E070E00E94720B1092480182
:10041000109247010895882361F0809147019091DF
:100420004801009759F481E892E061E00E94AF0D25
:1004300005C081E892E061E00E94C20D81E892E08F
:100440006AE00E94870C089580E00E940B020895E4
:1004500081E00E940B020895CF93DF93CDB7DEB702
:100460002C970FB6F894DEBF0FBECDBF8091470129
:1004700090914801009739F020914101309142015B
:100480002053384F07C0CE01039661E00E94A60DAD
:10049000282F392F3A832983CE01019662E00E94EA
:1004A000870C2C960FB6F894DEBF0FBECDBFDF9140
:1004B000CF910895CF93DF9300D0CDB7DEB70E94E0
:1004C000BA049A838983CE01019662E00E94870C68
:1004D0000F900F90DF91CF910895CF93DF9300D0CD
:1004E000CDB7DEB70E9415059A838983CE010196A8
:1004F00062E00E94870C0F900F90DF91CF910895DA
:10050000CF930E94AE01C82F0E94DD01882359F4C9
:10051000CF3729F08C2F90E0880F991F02C08FEF02
:1005200090E00E943F0BCF910895CF930E94AE01BF
:10053000C82F0E94DD01882359F4CF3729F08C2F72
:1005400090E0880F991F02C08FEF90E00E94640B2B
:10055000CF910895CF930E94AE01C82F0E94DD0174
:10056000882371F4CF3741F08C2F90E0880F991FCA
:10057000909581959F4F02C081E09FEF0E943F0BB5
:10058000CF910895CF930E94AE01C82F0E94DD0144
:10059000882371F4CF3741F08C2F90E0880F991F9A
:1005A000909581959F4F02C081E09FEF0E94640B60
:1005B000CF9108950F931F93CF93DF930E94AE01C5
:1005C000D82F0E94DD018823F1F4DD2399F00DE19D
:1005D00012E0C0E002C0C536B1F00E94AE01F801E1
:1005E00081938F010E94DD01882369F4CF5FCD17CD
:1005F00091F701C0C0E08DE192E0FC01EC0FF11D2C
:1006000010820E94A808DF91CF911F910F91089549
:100610000E946C0A08951F93CF93DF930E94AE014E
:10062000182F0E94DD018823A9F4112399F0D0E04E
:100630000E94AE01C82F0E94DD01882359F40E9458
:10064000BA0B8C2F0E949B0A81E00E94BA0BDF5FDD
:10065000D11771F7DF91CF911F910895CF93DF9359
:100660000E94AE01C82F0E94DD01882359F40E9428
:10067000AE01D82F0E94DD01882321F48C2F6D2F2D
:100680000E943C0ADF91CF9108950E949D0D8CE35A
:1006900090E064EC7FEF0E94720B03C081E00E9447
:1006A000BC0D0E94830DDC01CB018A3F9105A105A1
:1006B000B105A0F384EC9FEF6CE370E00E94720B35
:1006C00003C081E00E94BC0D0E94830DDC01CB01C0
:1006D0008E3E22E0920720E0A20720E0B20788F3D6
:1006E0008CE390E064EC7FEF0E94720B03C081E02A
:1006F0000E94BC0D0E94830DDC01CB01883E23E0EB
:10070000920720E0A20720E0B20788F380E090E0A3
:1007100060E070E00E94720B84E191E061E00E9471
:10072000870C0895EF92FF920F931F93CF93DF935F
:1007300000D000D00F92CDB7DEB78E010F5F1F4FF4
:100740000F2EF6E0EF2EFF24F02DEC0EFD1E0E9482
:10075000AE01F80181938F010E94DD018823E9F445
:100760000E151F05A1F789818F3711F0880F01C081
:100770008FEF809325018A81809346018B8180933E
:1007800045018C81809344018D818093430181E0F8
:1007900090E090934801809347010F900F900F9045
:1007A0000F900F90DF91CF911F910F91FF90EF90DD
:1007B000089580E090E060E070E00E94720B10927B
:1007C000480110924701089580ED97E00E94FC0DCA
:1007D00081E00E9417090E946C0A86E191E00E9464
:1007E000980A60E072EC81E090E00E94E90B81E001
:1007F0000E94BA0B89EB91E064E60E94750B0CE154
:1008000011E00E94AE01C82FE82FF0E0E73CF105AF
:1008100008F048C0EC5CFF4FEE0FFF1F0590F4910D
:10082000E02D09940E94FB01ECCF0E942402E9CF45
:1008300081E090E00E942802E4CF0E945A02E1CFBA
:100840000E946D02DECF0E94DA02DBCF81E00E94BF
:10085000BC0D81E090E00E942802D3CF0E94B70D2A
:10086000D0CF0E942C02CDCF0E940803CACF0E9495
:100870000B03C7CF0E942E03C4CF0E944503C1CFF4
:100880000E949203BECF0E94D903BBCF0E94800278
:10089000B8CF0E94AA02B5CF0E949502B2CF0E94A3
:1008A000C202AFCF0E946C0AC8010E94980A80E081
:1008B00061E00E943C0A8C2F0E94880AA2CFEF922E
:1008C000FF920F931F93982F803278F487E88093DC
:1008D0007A0080917C0080648076892B80937C00F4
:1008E00080917A00806480937A0080917A0086FDFE
:1008F000FCCFFB01EE24FF24870180917A00806405
:1009000080937A0080917A0086FDFCCF80917C00F4
:1009100085FF04C08091790090E004C08091780048
:1009200090917900A0E0B0E0E80EF91E0A1F1B1FAD
:10093000319719F7CB01969587956034710538F496
:100940008E0D9F1D70E00E94C3139B010DC0A0E09F
:10095000B0E0E80EF91E0A1F1B1F9B0140E050E0AB
:10096000C801B7010E94EA13C9011F910F91FF90BE
:10097000EF90089587E064E170E00E945F040895BD
:10098000A0E0B0E0209126013091270140E050E046
:10099000BC01CD010E9498139B01AC0180917C00A9
:1009A00085FF0BC0B901CA0161587F4F8F4F9F4F20
:1009B0002FEF30E040E050E00AC0B901CA016150B9
:1009C0007E4F8F4F9F4F2FEF33E040E050E00E946B
:1009D000EA13C90108950E945F040E94C0040895AB
:1009E0001F9310917C0080917C008F7D80937C0010
:1009F00086E06AE070E00E94EB04AC0115FD04C0E3
:100A000080917C008F7D03C080917C008062809308
:100A10007C009A01220F331F240F351F2F5F3F4F99
:100A200036952795C9011F9108950E94F0040895F5
:100A3000A0E0B0E0EEE1F5E00C942F14FC015B01C6
:100A4000C42E809149018823C9F481E08093490133
:100A500010926F0083E28093800081E18093810097
:100A60001092820080E197E2909389008093880041
:100A700010928B0010928A00229A7894109228018A
:100A8000F7FD03C0DD24D39403C0FF772AE0D22E04
:100A900080918100082F10E0087F107088ECD89EAC
:100AA000C00111248E179F07C0F4EF0187E2E131E6
:100AB000F80710F0C0E1D7E2BE017695679580E0B7
:100AC00090E06058794687469F4F9E0140E050E095
:100AD0000E94EA137901016024C088E2D89E802D2B
:100AE0001124C82FD0E0CE17DF0708F4EF01BE01B4
:100AF000769567959E0140E050E08AE0D81639F47B
:100B000080E090E0605E734481449F4F06C080E0C7
:100B100090E060537D4E8C4E9F4F0E94EA13790106
:100B200002608AE0D81639F4CE0105966AE070E0DA
:100B30000E94C313EB0183E0C83ED80711F4B5014E
:100B40000FC0BE0180E090E0950140E050E00E94BF
:100B5000981328EE33E040E050E00E940C14B901F5
:100B600010926F0000938100F0928900E09288005B
:100B7000E0918800F0918900AC2DA03108F0AFE041
:100B800080E190E08A1B910902C0F695E7958A956D
:100B9000E2F7F0938B00E0938A0070935101609329
:100BA000500186B38FEF86BB81E080936F00CDB795
:100BB000DEB7EAE00C944B14CF93DF93EB018F3F49
:100BC00011F0442329F488EE93E0BE0140E067C0B1
:100BD000813110F420E005C0282F2051203608F084
:100BE0002FE5822F6CE00E94B713382F682F70E03A
:100BF00084EF9FEF689FF001699FF00D789FF00DE3
:100C00001124E20FF11DEC30F10538F4E550FF4FEF
:100C10000C945E148CE991E023C080E090E020C049
:100C200085EB91E01DC08FEC91E01AC08AEE91E057
:100C300017C087E092E014C086E292E011C087E41A
:100C400092E00EC089E692E00BC08EE892E008C008
:100C500085EB92E005C08EED92E002C08AE093E061
:100C6000373071F002C0880F991F6A95E2F7323071
:100C700020F005966AE070E00BC0805090480BC0F1
:100C800036E0880F991F3A95E1F7029665E070E02B
:100C90000E94C313CB01403108F04FE0BE010E9417
:100CA0001805DF91CF91089530914E01E0914A01EE
:100CB000F0914B01332311F0249101C02081822F48
:100CC00081548A3108F4205E203259F480914A011F
:100CD00090914B01019690934B0180934A010197AB
:100CE00029F7822F0895CF93DF930E945406282F6F
:100CF000C0E0D0E01DC0CE0153E0880F991F5A9587
:100D0000E1F7CC0FDD1FC80FD91F822F992787FD70
:100D10009095C80FD91FE09780914A0190914B019F
:100D2000019690934B0180934A010E945406282F0C
:100D3000822F80538A30F8F2CE01DF91CF9108954F
:100D4000A0E0B0E0E6EAF6E00C942D1480902901D2
:100D5000B0904C01BB2021F060914D01662399F4C5
:100D6000A0904D0100912E0110912F01E0902A01D9
:100D7000F0902B01C0912C01D0912D01C090300139
:100D8000D090310108C18FEF70E040E00E94DC0597
:100D900010924D01CBC194E0892EBB2404EF11E0E9
:100DA00084E0E82EF12CC0EDD7E0B4E09B2EAFE05C
:100DB000CA2ED12C0E945406282F80914A0190916E
:100DC0004B01019690934B0180934A01263609F41A
:100DD00098C02736CCF42236A1F1233674F42E3392
:100DE00061F12F3334F42132B1F22C3309F00BC10D
:100DF00026C0213609F007C121C1243609F451C0AB
:100E000025360CF066C035C02F3609F4C1C0203736
:100E100054F42C3609F4A5C02D3609F4A6C02736A3
:100E200009F0F1C086C0243709F4D1C0263709F48F
:100E3000E6C0223709F0E7C0B0C08394BBCF8A94E4
:100E4000B9CFA0924D01B0924C0110932F010093A5
:100E50002E01F0922B01E0922A01D0932D01C09334
:100E60002C0190922901D0923101C09230012BE0E7
:100E7000FCC0A0924D01B0924C0110932F01009341
:100E80002E01F0922B01E0922A01D0932D01C09304
:100E90002C0190922901D0923101C092300120E0C2
:100EA000E4C0A0924D01B0924C0110932F01009329
:100EB0002E01F0922B01E0922A01D0932D01C093D4
:100EC0002C0190922901D0923101C092300122E090
:100ED000CCC0A0924D01B0924C0110932F01009311
:100EE0002E01F0922B01E0922A01D0932D01C093A4
:100EF0002C0190922901D0923101C092300124E05E
:100F0000B4C0A0924D01B0924C0110932F010093F8
:100F10002E01F0922B01E0922A01D0932D01C09373
:100F20002C0190922901D0923101C092300125E02C
:100F30009CC0A0924D01B0924C0110932F010093E0
:100F40002E01F0922B01E0922A01D0932D01C09343
:100F50002C0190922901D0923101C092300127E0FA
:100F600084C00E9473067C0144C00E9454068C36E3
:100F700011F4BB2403C0AA24BB24B39480914A017A
:100F800090914B01019690934B0180934A0112CFAF
:100F90000E947306882E982C0DCFA0924D01B0921E
:100FA0004C0110932F0100932E01F0922B01E0923F
:100FB0002A01D0932D01C0932C0190922901D09247
:100FC0003101C092300120E0FF24F3944FC00E9411
:100FD0007306BC0180EC9DE50E94C313CB01EB01BD
:100FE000F3E0CC0FDD1FFA95E1F7880F991FC80FCA
:100FF000D91FCE01B7010E94C3138B01DBCE0E9423
:1010000073066C01D7CEA0924D01B0924C011093A3
:101010002F0100932E01F0922B01E0922A01D09330
:101020002D01C0932C0190922901D0923101C092E0
:10103000300110924B0110924A0178C0A0924D01EC
:10104000B0924C0110932F0100932E01F0922B01CE
:10105000E0922A01D0932D01C0932C019092290196
:10106000D0923101C092300129E0FF248CE0889EAB
:10107000C0011124E22EE80E0AC080914A0190912D
:101080004B01019690934B0180934A01E3940E9497
:1010900054068B3291F3833281F30CC080914A0164
:1010A00090914B01019690934B0180934A01EA94F1
:1010B0000E9454068D3291F3C0912E01D0912F01E0
:1010C0008153883058F400912C0110912D010E9419
:1010D0007306BC01C8010E94C313EB018E010BC053
:1010E00080914A0190914B01019690934B0180931E
:1010F0004A01C00FD11F169507950E9454068E32E3
:1011000079F380914C01882339F0CE01969587952B
:1011100080934D01C81BD109FF2011F0EE24EA9401
:101120008E2DBE01409130010E94DC05CDB7DEB7A7
:10113000ECE00C94491410926F0090934B01809353
:101140004A0110924E0110924D010E94A00608958E
:101150000E949B0808951F920F920FB60F921124C0
:101160002F933F934F935F936F937F938F939F93AF
:10117000AF93BF93EF93FF938091500190915101F2
:1011800001979093510180935001019611F51092AF
:101190006F00789480918100887F816080938100C6
:1011A00080E197E2909389008093880010928B00F1
:1011B00010928A0081E08093280180914A019091E9
:1011C0004B01892B31F080914F01882311F40E944B
:1011D000A006FF91EF91BF91AF919F918F917F9169
:1011E0006F915F914F913F912F910F900FBE0F9094
:1011F0001F90189580912801882341F080914A0121
:1012000090914B01892B11F00E94A00620E0809163
:101210004A0190914B01892B09F021E0822F08951A
:1012200080934F01882311F40E94FA0808950E94C8
:10123000100908950E94FA080895EF92FF920F9303
:101240001F936AB157985A98289AE0905601F090E7
:101250005701009158011091590120E030E041E020
:1012600050E0CA016F9364E06A95F1F76F910197BE
:10127000C9F75C9ACA016F9364E06A95F1F76F91C0
:101280000197C9F789B15C98FA016F9364E06A9598
:10129000F1F76F913197C9F75C9AFA016F9364E0A7
:1012A0006A95F1F76F913197C9F75C9887FF0BC08A
:1012B0002C5F3F4FC901A0E0B0E08E159F05A0074D
:1012C000B10708F4CECF6AB91F910F91FF90EF904C
:1012D000089565B190E0AC0141705070440F551F06
:1012E0009C012670307053E0220F331F5A95E1F7AE
:1012F000422B6D7C462B45B92BB18870907034E041
:10130000880F991F3A95E1F72F77282B2BB95C9A14
:1013100081E090E0FC016F9364E06A95F1F76F91D2
:101320003197C9F75C986F9364E06A95F1F76F9114
:101330000197C9F7089580E197E2A0E0B0E08093BB
:10134000560190935701A0935801B0935901529AB6
:10135000209A549A8EE190E00E943D0D83E00E9415
:101360009E0A86E090E00E943D0D83E00E949E0A66
:1013700082E090E00E943D0D83E00E949E0A82E0A0
:1013800090E00E943D0D82E00E949E0A82E090E083
:101390000E943D0D88E20E94180A88E00E94180A07
:1013A00081E00E94180A86E00E94180A8CE00E94E0
:1013B000180A089580915A01882329F481E08093C6
:1013C0005A010E949B090895BF92CF92DF92EF923B
:1013D000FF920F931F93082F162FF42E0E94DA0905
:1013E0000E941D09B4B0C5B0DAB0EBB02898112343
:1013F00011F05A9A01C05A9884B1826384B9579AFD
:1014000081E0F81629F0802F82958F700E9469097B
:10141000802F8F700E946909DAB8EBB8B4B8C5B8EC
:101420001F910F91FF90EF90DF90CF90BF900895A4
:1014300060E042E00E94E4090895A4E0B0E0E3E245
:10144000FAE00C943514182F062F80E8898380EC7D
:101450008A8384E98B8384ED8C83FE01E60FF11D82
:101460008181810F0E94180A109355010093540145
:101470002496E4E00C9451140E941D0A089581E022
:101480000E94180A8091520190915301892B19F101
:1014900060E070E208C0E0915201F0915301E40F66
:1014A000F51F70836F5F462F50E08091320190E00E
:1014B00001972091330130E0FC01E29FC001E39FDE
:1014C000900DF29F900D11244817590724F31092A4
:1014D00055011092540108950E943F0A089561E059
:1014E00042E00E94E40908958A3010F4805D01C052
:1014F000895C0E946F0A08951F93182F82958F7040
:101500000E94740A812F8F700E94740A1F9108959F
:101510000E947C0A0895CF93DF93EC0103C02196CB
:101520000E946F0A88818823D1F7DF91CF910895B7
:101530000E948B0A08950E946F0A089560E041E0BE
:101540000E94E4090895282F883068F481E090E033
:1015500002C0880F991F2A95E2F7282FAAE2B0E06F
:10156000EBE2F0E029C08E3080F430E028503040CB
:1015700081E090E002C0880F991F2A95E2F7282F9A
:10158000A4E2B0E0E5E2F0E017C0853130F020E001
:10159000A0E0B0E0E0E0F0E00FC030E02E503040DE
:1015A00081E090E002C0880F991F2A95E2F7282F6A
:1015B000A7E2B0E0E8E2F0E06F3F19F48081822713
:1015C00009C0662319F08081822B04C09081822F8C
:1015D0008095892380838C91822B8C930895E0EBF6
:1015E000F0E083EF8083808184BDE1EBF0E082E076
:1015F0008083808185BDE4EBF0E010828081E3EBA5
:10160000F0E08083808188BD88B587BD86E060E09A
:101610000E94A30A85E060E00E94A30A8BE060E0DC
:101620000E94A30A83E060E00E94A30A08958091CB
:101630005B01882329F481E080935B010E94EF0A1B
:101640000895CF93DF93EC010E94170BD7FD02C0E2
:1016500020E004C0D095C195DF4F21E0CE01CF3FFF
:10166000D10519F014F08FEF90E0222319F018BC87
:1016700087BD02C088BD17BCDF91CF9108950E943D
:10168000210B0895CF93DF93EC010E94170BD7FD38
:1016900002C020E004C0D095C195DF4F21E0CE010B
:1016A000CF3FD10519F014F08FEF90E0222329F0FD
:1016B0001092B4008093B30004C08093B4001092E1
:1016C000B300DF91CF9108950E94420B08950F93CC
:1016D0001F938B010E94210BC8010E94420B1F9196
:1016E0000F9108950E94670B08952091C1002F77F4
:1016F0002093C100909365018093640110925E0174
:101700006093600181E08093610180915C01882396
:1017100029F48091C10080688093C1000895809170
:101720005E01089520915C01222311F488E901C033
:1017300088E18093C1008091620190916301892BBF
:1017400079F090915D0180915F01981748F4222310
:1017500039F48091C10080628093C100789408952B
:101760008091C1008F7DF8CF80935C0180E00E9462
:10177000920B08950E94B40B0895EF92FF920F937D
:101780001F937B018C0180E00E94920B60EA75E25E
:1017900086E290E06E197F09800B910B33E0660FB3
:1017A000771F881F991F3A95D1F724E0EE0CFF1C94
:1017B000001F111F2A95D1F7A80197010E94EA1373
:1017C0003093C5002093C4001F910F91FF90EF90BC
:1017D00008950E94BD0B08958091C1008F7D809374
:1017E000C100E0916201F0916301309709F45DC09E
:1017F00080915D0190915F01891708F05AC0809136
:10180000C00085FF56C080915D01E80FF11D808109
:101810008093C60080915D018F5F80935D0149C018
:1018200080915C01882309F040C08091C1008062F2
:101830008093C1008091C1008F778093C100E091B7
:101840006401F0916501309731F180915E019091D2
:101850006001891700F58091C00087FF1CC02091AE
:10186000C60080915E01891750F480915E01E80FF7
:10187000F11D208380915E018F5F80935E019091C6
:101880005E0180916001981731F480916101882395
:1018900011F010925E0180915C01882379F48091AF
:1018A000C10080688093C10008958091C1008F7D40
:1018B000BFCF80915D018917C0F7B2CF08950E9414
:1018C000EC0B0895909363018093620110925D0187
:1018D00060935F01892BA9F080915D01861788F4E0
:1018E00080915C01882369F48091C10080620CC002
:1018F0000E94EC0B90915D0180915F019817C1F7F8
:1019000008958091C1008F7D8093C100F3CF0E9424
:10191000620C08951F920F920FB60F9211242F930D
:101920008F939F93EF93FF932091C600E091640102
:10193000F0916501309781F090915E018091600196
:10194000981750F480915E01E80FF11D208380917B
:101950005E018F5F80935E0190915E0180916001D6
:10196000981731F480916101882311F010925E0183
:10197000FF91EF919F918F912F910F900FBE0F903C
:101980001F9018951F920F920FB60F9211248F93EC
:101990009F93EF93FF93E0916201F0916301309781
:1019A000F9F080915D0190915F01891738F5809180
:1019B000C00085FF23C080915D01E80FF11D80818B
:1019C0008093C60080915D018F5F80935D0116C09A
:1019D00080915C01882321F48091C100806203C062
:1019E0008091C1008F7D8093C100FF91EF919F9105
:1019F0008F910F900FBE0F901F90189580915D01F1
:101A0000891770F7E5CF2F928F939F932FB6809110
:101A10006701909168010196809367019093680136
:101A200090E080916901891F8093690190916F0115
:101A30009C5F90936F0180916E0180519742C0F03E
:101A400090936F0180936E0180916A0190916B0178
:101A5000019680936A0190936B0190E080916C01F4
:101A6000891F80936C0180916D01891F80936D01A6
:101A70002FBE9F918F912F90189528EE33E009C0CB
:101A8000F9016F9364E06A95F1F76F913197C9F7A7
:101A900001970097A9F70895A0E7B0E08C918E7F99
:101AA0008C93E0EBF0E0808183608083E1EBF0E0F9
:101AB0008081807F8083808182608083B89A8C91CE
:101AC00081608C937894089580917001882329F423
:101AD00081E0809370010E944C0D08950E94640D76
:101AE000E0E7F0E080818E7F808320916A01309171
:101AF0006B0140916C0150916D0180818160808308
:101B0000B901CA0108950E946E0D08950E94640DE6
:101B1000E0E7F0E080818E7F808310926A0110926E
:101B20006B0110926C0110926D0110926F01109276
:101B30006E0180818160808308950E94860D0895E2
:101B4000089581E791E00E94561208959C01462F66
:101B500081E791E0B90120E00E94C91108959C013C
:101B6000462F81E791E0B9010E940C11089581E7A9
:101B700091E00E94650E0895682F81E791E00E9430
:101B8000761308959C01462F81E791E0B9010E94E8
:101B90006D1008950F93DF93CF9300D000D00F9274
:101BA000CDB7DEB79C01962FDE011196E4E3F1E09C
:101BB00085E001900D928150E1F7BE016F5F7F4F8C
:101BC000992329F081E791E045E00FEF04C081E718
:101BD00091E045E003E10E94AF0E81E791E00E94B1
:101BE0004D0E0E94860D0F900F900F900F900F904A
:101BF000CF91DF910F91089560E00E94CA0D089582
:101C0000FC011182108213821282158214821782C3
:101C10001682613118F080E1808701C06087208BD7
:101C2000483060F481E090E002C0880F991F4A9527
:101C3000E2F74AE250E02BE230E029C04E3080F477
:101C4000242F30E02850304081E090E002C0880F1F
:101C5000991F2A95E2F744E250E025E230E017C0F0
:101C6000453130F080E040E050E020E030E00FC04F
:101C7000242F30E02E50304081E090E002C0880FE9
:101C8000991F2A95E2F747E250E028E230E0818789
:101C900033872287558744870895DC011C96ED9190
:101CA000FC911D97309781F0808119969C9119972E
:101CB000892B80831A96ED91FC911B979081199640
:101CC0008C918095892380830895DC0120E040C0B9
:101CD000ED91FC911197309761F0822F90E0880F81
:101CE000991FE80FF91F1E968D919C911F97918364
:101CF00080831496ED91FC911597309761F0822FB7
:101D000090E0880F991FE80FF91F1E968D919C9106
:101D10001F97918380831296ED91FC9113973097D2
:101D200041F0822F90E0880F991FE80FF91F118270
:101D300010821696ED91FC911797309741F0822F03
:101D400090E0880F991FE80FF91F118210822F5F12
:101D500018968C911897281708F4BACF0895A0E028
:101D6000B0E0E5EBFEE00C942F14EC015B01642F76
:101D70007901402F20E00E94000ECE018F5B9F4F23
:101D8000FC011082DE01AE5BBF4F1C92FE01ED5BD9
:101D9000FF4F1082FF86EE8640E061E070E06F0149
:101DA0007D018C014EC0F501E40FF11D808188306A
:101DB00050F49B0102C0220F331F8A95E2F7922F45
:101DC00029E230E01FC08E3060F490E00897FB01FC
:101DD00002C0EE0FFF1F8A95E2F79E2F23E230E04C
:101DE00011C0853120F090E020E030E00BC090E0A1
:101DF0000E979B0102C0220F331F8A95E2F7922FA4
:101E000026E230E0E42FF0E0DE01AE0FBF1F519676
:101E10009C93EE0FFF1FEC0FFD1F32A321A3233273
:101E2000310511F4F80109C02632310511F4F7012A
:101E300004C02932310521F4F6018081982B90836A
:101E40004F5F8885481708F4AECFCDB7DEB7EAE01C
:101E50000C944B14A0E0B0E0E0E3FFE00C942D14F0
:101E6000EC015B01CF5BDF4F4991A9918880C3549E
:101E7000D04090E009C0E92FF0E0EE0FFF1FEA0D1F
:101E8000FB1D118210829F5F88859817A0F384B193
:101E9000CF5BDF4F3991832B84B987B12991822B96
:101EA00087B98AB19881C354D040892B8AB985B14A
:101EB000832B85B988B1822B88B98BB1892B8BB9DB
:101EC000EAE0F0E06F9364E06A95F1F76F91319783
:101ED000C9F784B13095832384B987B120958223D3
:101EE00087B98AB1909589238AB985B1382335B9E4
:101EF00088B1282328B98BB198239BB99090B00062
:101F0000C090B1008091B00083608093B00082E007
:101F10008093B100D090B20060E070E03AC0509180
:101F2000B2005D19650F711DE3B0E41609F04FC0F2
:101F3000F6B0FA1609F04BC089B1881509F047C010
:101F400025C0A42FB0E09D01220F331F8501020F91
:101F5000131FF80180819181892BA1F42C0F3D1F63
:101F6000F90181A192A1FC01208130E0AC0FBD1FDD
:101F700051968C9190E028233923232B19F4F801F2
:101F8000718360834F5F88854817D8F2D50E4E2D38
:101F9000AF2D8E859F856817790708F29092B00063
:101FA000C092B10020E00FC0E22FF0E0EE0FFF1F63
:101FB000EA0DFB1D80819181892B21F48E859F85FF
:101FC000918380832F5F8885281770F305C0E3B065
:101FD000F6B089B040E0D7CFCDB7DEB7ECE00C94D7
:101FE0004914A0E0B0E0E7EFFFE00C943114EC01FD
:101FF0008B01D0907C00E0907A00C7B0F8B080915F
:102000007A0086FDFCCF90E009C0E92FF0E0EE0FEA
:10201000FF1FE00FF11F118210829F5F88859817C4
:10202000A0F397B18AA18095982397B998B1892395
:1020300088B987E880937A0050E025C0FE01E40F5C
:10204000F11D8189806480937C0080917A00806496
:1020500080937A0080917A0086FDFCCFE42FF0E037
:10206000EE0FFF1FE00FF11F2091780030917900F3
:1020700080819181820F931F918380834F5F888538
:102080004817E0F25F5F89A1581710F040E017C0D1
:1020900040E0F5CFE42FF0E0EE0FFF1FE00FF11F5F
:1020A00069A1862F90E09595879520813181820FD7
:1020B000931F70E00E94C313718360834F5F888514
:1020C000481740F3D0927C00E0927A00F8B8C7B885
:1020D000CDB7DEB7E8E00C944D14A0E2B0E0E3E742
:1020E000F0E10C9430148C017B01D42E842F8150AC
:1020F0008230B0F4D8011C96ED91FC911D97309779
:1021000079F0808119969C911997892B80831A9672
:10211000ED91FC911B97808119969C91892B80836E
:10212000F8018089882349F5C02EB12EC801B70176
:102130000E942A0FD8011C96ED91FC911D973097B3
:1021400081F0808119969C911997892B80831A962A
:10215000ED91FC911B97908119968C918095892324
:102160008083B2E0DB1609F053C08C2D9B2DBE019D
:102170006F5F7F4F0E942A0F27C0C02EB12EC8016B
:10218000B7010E94F10FD8011C96ED91FC911D97AB
:10219000309781F0808119969C911997892B8083C3
:1021A0001A96ED91FC911B97908119968C918095D0
:1021B00089238083B2E0DB1659F58C2D9B2DBE015F
:1021C0006F5F7F4F0E94F10F40E0BE016F5F7F4F56
:1021D0001AC0E42FF0E0EE0FFF1F6701CE0EDF1EE6
:1021E000E60FF71FD8011E962D913C911F97808115
:1021F0009181281B390BF60180819181820F931FF9
:10220000918380834F5FD80118968C91481708F30B
:10221000A096E9E00C944C14A0E0B0E0E2E1F1E11A
:102220000C942E14EC01162F072F942E22E0421747
:1022300011F0442351F48C819D81892B09F4A4C0B1
:102240008E819F81892B09F49FC0892D8150823016
:1022500050F488819981892B09F496C08A819B81E9
:10226000892B09F491C0CE01612F702F492D0E9456
:102270006D10812F902F9C015901CC24DD2400E0AA
:1022800010E07CC081E0981669F4EA81FB81E00FE0
:10229000F11F20813181E881F981E00FF11F408138
:1022A00051813DC0AC81BD81992059F4EE81FF81FF
:1022B000E00FF11F20813181A00FB11F4D915C9182
:1022C0002EC0A00FB11F8D919C91E881F981E00F84
:1022D000F11F20813181EE85FF858217930710F46D
:1022E000AF0105C0A9014E0F5F1F481B590BEE81BE
:1022F000FF81E00FF11F60817181EA81FB81E00FB6
:10230000F11F80819181EE85FF856817790710F4B0
:102310009F0105C09C012E0F3F1F261B370B790123
:10232000E41AF50A01F1F5016081718180E090E025
:102330009A0140E050E0621B730B840B950B28EE72
:1023400033E040E050E00E949813970140E050E0F5
:102350000E940C14C901F3E0293E3F0714F088EEF7
:1023600093E097FF02C080E090E0F50181939193A4
:102370005F010894C11CD11C0E5F1F4F888590E03F
:10238000C816D9060CF47ECFCDB7DEB7EBE00C94BF
:102390004A14A4E0B0E0EFECF1E10C9427148C01B6
:1023A000F62EE72E2A830E940C11D8011896BC91B4
:1023B000B9832F2D3E2DC9018C0155244424662458
:1023C000772443011C821B82AA24BB246501B8EE3A
:1023D0002B2EB3E03B2E32C0F801E080F180FA8171
:1023E000FF2321F0C1018E199F097C0199ECE916A8
:1023F000F10414F044244394A3E3EA16F1049CF09E
:10240000B701882777FD8095982FA60195010E9436
:102410009813660E771E881E991EEB81FC81EE0DC7
:10242000FF1DFC83EB83539488EE93E0A0E0B0E0C3
:10243000A80EB91ECA1EDB1E0E5F1F4F99815916CA
:1024400058F2442009F5492F50E04150504084EFA4
:1024500091E0489F9001499F300D589F300D112405
:102460008091B5019091B601821793071CF420E08A
:1024700030E017C088EE93E0489F9001499F300DEF
:10248000589F300D11240DC0AB81BC819D0140E0EF
:1024900050E0C401B3010E94EA132093B5013093C8
:1024A000B601C9012496E2E10C944314CF93DF9363
:1024B000EC018A819B81009711F00E94FA148E81B1
:1024C0009F81009711F00E94FA14888199810097EA
:1024D00011F00E94FA148C819D81009711F00E94E6
:1024E000FA14DF91CF910895A3E6B0E0EAE7F2E1B4
:1024F0000C9427147C015B016A01A2962FAFA2976E
:10250000DA018D919C91892B11F5F701808590E07E
:10251000880F991F0E946414D6018D939C93009795
:1025200009F4DFC020E030E00CC0C901880F991F1A
:10253000D601ED91FC91E80FF91F118210822F5FF7
:102540003F4FF701808590E02817390774F3D501D4
:102550008D919C91892B89F000E010E03E01089458
:10256000611C711C41E4242E312C2C0E3D1E31E2E5
:10257000432E512C4C0E5D1E28C0F701808590E043
:10258000880F991F0E946414D5018D939C93009726
:1025900009F4A7C020E030E011C0C901880F991FDD
:1025A000D501ED91FC91E80FF91FD7011E968D9191
:1025B0009C911F97918380832F5F3F4FF701808508
:1025C00090E0281739074CF3C7CFC701B301A29693
:1025D0004FADA2970E946D10D70118968C91882E4E
:1025E0009924A101F301A4965FAE4EAEA49760E0DA
:1025F00070E034C00115110559F0A496AEADBFAD21
:10260000A4972D913C91808191812817390758F426
:1026100080819181A496AEADBFADA4978D939C931C
:102620000115110541F0DA012D913C9180819181D4
:102630008217930728F480819181DA018D939C930E
:102640006F5F7F4F4E5F5F4F3296A4968EAD9FAD0A
:10265000A4970296A4969FAF8EAFA49768157905AC
:102660004CF20F5F1F4F0A30110509F0AECF40E06A
:1026700050E020E030E08E010F5B1F4FBE016F5D28
:102680007F4F28C0F801E20FF31F80809180F60190
:10269000A081B181A20FB31F8D919C9111978815D4
:1026A000990510F48D929C92FB01E20FF31F80803C
:1026B0009180F501A081B181A20FB31F8D919C91F2
:1026C00011978816990610F48D929C924F5F5F4F78
:1026D0002E5F3F4FD70118968C9190E0481759070D
:1026E0008CF2CD59DF4FE2E10C9443141F93CF934A
:1026F000DF93EC01162F862F8150823040F4AE011B
:102700004E5F5F4FCE01BE0121E00E947412123075
:1027100011F0112349F4AE014A5F5F4FCE012496B8
:10272000BE0120E00E947412DF91CF911F910895A5
:10273000629FD001739FF001829FE00DF11D649FA5
:10274000E00DF11D929FF00D839FF00D749FF00D31
:10275000659FF00D9927729FB00DE11DF91F639FD2
:10276000B00DE11DF91FBD01CF0111240895991B82
:1027700079E004C0991F961708F0961B881F7A9578
:10278000C9F780950895AA1BBB1B51E107C0AA1F7A
:10279000BB1FA617B70710F0A61BB70B881F991F02
:1027A0005A95A9F780959095BC01CD01089597FBA6
:1027B000092E07260AD077FD04D0E5DF06D00020D9
:1027C0001AF4709561957F4F0895F6F7909581956D
:1027D0009F4F0895A1E21A2EAA1BBB1BFD010DC03D
:1027E000AA1FBB1FEE1FFF1FA217B307E407F507C1
:1027F00020F0A21BB30BE40BF50B661F771F881F9D
:10280000991F1A9469F760957095809590959B0132
:10281000AC01BD01CF01089597FB092E05260ED00E
:1028200057FD04D0D7DF0AD0001C38F450954095EE
:10283000309521953F4F4F4F5F4F0895F6F7909594
:102840008095709561957F4F8F4F9F4F08952F9280
:102850003F924F925F926F927F928F929F92AF9230
:10286000BF92CF92DF92EF92FF920F931F93CF937D
:10287000DF93CDB7DEB7CA1BDB0B0FB6F894DEBF14
:102880000FBECDBF09942A88398848885F846E843A
:102890007D848C849B84AA84B984C884DF80EE8084
:1028A000FD800C811B81AA81B981CE0FD11D0FB68D
:1028B000F894DEBF0FBECDBFED010895EE0FFF1FF0
:1028C0000590F491E02D0994CF93DF93AC01823011
:1028D000910510F442E050E0E0918D02F0918E02FB
:1028E00020E030E0A0E0B0E024C080819181841736
:1028F0009507D0F08417950771F482819381109722
:1029000029F013969C938E9312972CC090938E026D
:1029100080938D0227C02115310519F08217930786
:1029200018F49C01BD01EF0192818381DF01E92F41
:10293000F82F3097D1F621153105F9F0C901841B24
:10294000950B8430910580F48A819B816115710516
:1029500021F0FB019383828304C090938E028093C5
:102960008D02FE01329642C0FE01E80FF91F41932D
:10297000519302979983888339C080918B029091FB
:102980008C02009741F480913B0190913C0190931F
:102990008C0280938B022091390130913A012115EC
:1029A000310541F42DB73EB780913D0190913E0134
:1029B000281B390BE0918B02F0918C02E217F30790
:1029C00098F42E1B3F0B2417350770F0CA010296AE
:1029D0002817390748F08E0F9F1F90938C02809321
:1029E0008B024193519302C0E0E0F0E0CF01DF9110
:1029F000CF9108950F931F93CF93DF939C0100977E
:102A000009F48CC0DC01129713961C921E92129747
:102A100060918D0270918E026115710589F48D911E
:102A20009C911197820F931F20918B0230918C0201
:102A30002817390769F5B0938C02A0938B026EC0FA
:102A4000FB0140E050E001C0FC01EA17FB0730F455
:102A500082819381AF010097B9F71FC0E9012297E6
:102A6000FB83EA8308811981C901800F911F8E17AA
:102A70009F0759F480819181800F911F029699835D
:102A80008883828193819B838A834115510529F430
:102A9000B0938E02A0938D0241C0FA01B383A2834A
:102AA000C191D191EC0FFD1FAE17BF0781F4F90161
:102AB000929182918C0F9D1F0296DA0111969C9340
:102AC0008E938281938113969C938E931297E0E06C
:102AD000F0E002C0FB01BC01DB0112968D919C91DC
:102AE00013970097B9F7CB0102962D913C9111975E
:102AF000820F931F20918B0230918C022817390787
:102B000069F4309729F410928E0210928D0202C05F
:102B10001382128270938C0260938B02DF91CF91AB
:102B20001F910F91089512E0C0E1D2E004C0FE01B0
:102B30000E9460142296C231D107C9F7F894FFCFE2
:102B40006F336300426164206461746100337069B3
:102B5000312E30006300536C617665004261642061
:102B6000636D640001FF881301040400D007F401C1
:102B70000F0002080E0F10111200008F022000003B
:00000001FF
