:100000000C9463000C948B000C948B000C948B006C
:100010000C948B000C948B000C948B000C948B0034
:100020000C948B000C948B000C948B000C948B0024
:100030000C948B000C948B000C948B000C948B0014
:100040000C94510E0C948B000C94780F0C948B0034
:100050000C948B000C948B000C948B000C948B00F4
:100060000C948B000C948B000000000024002700EF
:100070002A0000000000250028002B0000000000DE
:1000800023002600290004040404040404040202DA
:100090000202020203030303030301020408102007
:1000A0004080010204081020010204081020000012
:1000B0000007000201000003040600000000000029
:1000C0000000340AFD1011241FBECFEFD8E0DEBFC0
:1000D000CDBF11E0A0E0B1E0E6E0F5E202C005909E
:1000E0000D92A838B107D9F712E0A8E8B1E001C035
:1000F0001D92A533B107E1F710E0C6ECD0E004C0D3
:100100002297FE010E944612C23CD107C9F70E9405
:100110004A0E0C9481120C940000A0E0B0E0E3E9D8
:10012000F0E00C945212EC01A880B980CA80DB8008
:10013000A114B104C104D10441F484E2A82E89EDD4
:10014000B82E8BE5C82E87E0D82EC601B5012DE16B
:1001500033EF41E050E00E94151227EA31E440E01D
:1001600050E00E94C1117B018C01C601B5012DE157
:1001700033EF41E050E00E941512CA01B9012CEEA4
:1001800034EF4FEF5FEF0E94C1116E0D7F1D801F96
:10019000911F97FF04C06150704080409048688371
:1001A00079838A839B839B01AC015F77B901CA0184
:1001B000CDB7DEB7EAE00C946E120E948D00089570
:1001C00089E791E00E948D00089560937901709312
:1001D0007A0180937B0190937C0108950895EF92BA
:1001E000FF920F931F93CF93DF93EC010E94990E20
:1001F0007B018C0113C00E94990E6E197F09800B40
:10020000910B615A7F408040904040F082E292E042
:1002100060E071E00E948D1180E00AC08F819885B6
:100220000E94AE10882339F38F8198850E94C210F6
:10023000DF91CF911F910F91FF90EF900895CF9391
:10024000DF93EC01AF81B885ED91FC91119701909E
:10025000F081E02DCD0166E50995AF81B885ED917E
:10026000FC9111970190F081E02DCD0160E009959E
:10027000CE010E94EF00CE010E94EF00CE010E944D
:10028000EF00CE010E94EF008036B9F081363CF4D9
:10029000883269F0823371F08232C9F405C0843645
:1002A00079F08637A1F40FC08BED90E00EC08FE798
:1002B00090E00BC08FE391E008C08FE990E005C0AB
:1002C0008FE390E002C08FEA90E09C838B83CE01A5
:1002D0000E94EF008036B9F081363CF4883269F034
:1002E000823371F08232C9F405C0843679F08637E2
:1002F000A1F40FC08BED90E00EC08FE790E00BC033
:100300008FE391E008C08FE990E005C08FE390E0B3
:1003100002C08FEA90E09E838D83DF91CF91089594
:100320001F93CF93DF93EC01AF81B885ED91FC91E2
:1003300011970190F081E02DCD0166E50995AF811F
:10034000B885ED91FC9111970190F081E02DCD01E0
:1003500061E0099510E0CE010E94EF001F5F1530AB
:10036000D1F7DF91CF911F910895FF920F931F93C3
:100370008C01F62EFC01A781B085ED91FC911197BF
:100380000190F081E02DCD0169E50995F801A78183
:10039000B085ED91FC9111970190F081E02DCD0198
:1003A00063E00995F801A781B085ED91FC91119763
:1003B0000190F081E02DCD016F2D0995C8010E94BB
:1003C000EF00F80182831F910F91FF900895FF9233
:1003D0000F931F938C01F62EFC01A781B085ED9140
:1003E000FC9111970190F081E02DCD0169E509950F
:1003F000F801A781B085ED91FC9111970190F081F2
:10040000E02DCD0162E00995F801A781B085ED915D
:10041000FC9111970190F081E02DCD016F2D099590
:10042000C8010E94EF00F80182831F910F91FF9095
:100430000895EF92FF920F931F938C01F62EE42EF6
:10044000FC01A781B085ED91FC9111970190F0819D
:10045000E02DCD0162E50995F801A781B085ED9108
:10046000FC9111970190F081E02DCD016F2D099540
:10047000F801A781B085ED91FC9111970190F08171
:10048000E02DCD016E2D0995C8010E94EF00F82ED8
:10049000C8010E94EF00682F8F2D0E9498111F91B4
:1004A0000F91FF90EF900895BF92CF92DF92EF925D
:1004B000FF920F931F937C01D62EC42EB22EFC0107
:1004C000A781B085ED91FC9111970190F081E02D0D
:1004D000CD0164E40995F701A781B085ED91FC9108
:1004E00011970190F081E02DCD016D2D0995F70157
:1004F000A781B085ED91FC9111970190F081E02DDD
:10050000CD016C2D0995F701A781B085ED91FC9186
:1005100011970190F081E02DCD016B2D0995F70128
:10052000A781B085ED91FC911197612F772767FD29
:100530007A950190F081E02DCD010995F701A78111
:10054000B085ED91FC9111970190F081E02DCD01E6
:10055000602F0995C7010E94EF00F70182831F9168
:100560000F91FF90EF90DF90CF90BF9008956F9222
:100570007F928F92AF92CF92DF92EF92FF920F9382
:100580001F93DF93CF93CDB7DEB73C01162FF42E28
:10059000D22EFC01A781B085ED91FC9111970190BD
:1005A000F081E02DCD0161E40995F301A781B085CB
:1005B000ED91FC9111970190F081E02DCD01612F1B
:1005C0000995F301A781B085ED91FC9111970190F8
:1005D000F081E02DCD016F2D0995F301A781B08544
:1005E000ED91FC9111970190F081E02DCD016D2DE1
:1005F0000995F301A781B085ED91FC9111970190C8
:10060000F081E02DCD01602F0995F301A781B08520
:10061000ED91FC9111970190F081E02DCD016E2DAF
:100620000995F301A781B085ED91FC911197019097
:10063000F081E02DCD016C2D0995F301A781B085E6
:10064000ED91FC9111970190F081E02DCD016A2D83
:100650000995F301A781B085ED91FC911197019067
:10066000F081E02DCD01682D0995F301A781B085BA
:10067000ED91FC9111970190F081E02DCD016F85F6
:100680000995C3010E94EF00F3018283CF91DF91AE
:100690001F910F91FF90EF90DF90CF90AF908F90D0
:1006A0007F906F900895FF920F931F938C01F62E09
:1006B000FC01A781B085ED91FC9111970190F0812B
:1006C000E02DCD016FE40995F801A781B085ED918A
:1006D000FC9111970190F081E02DCD016F2D0995CE
:1006E000C8010E94EF00F80182831F910F91FF90D3
:1006F00008954F925F926F927F928F929F92AF92E6
:10070000BF92CF92DF92EF92FF920F931F93DF93EE
:10071000CF93CDB7DEB73C01F62EB42E922E4B8888
:100720005C8860E00E945303F301A781B085ED91DE
:10073000FC9111970190F081E02DCD0162E60995C1
:10074000F301A781B085ED91FC9111970190F081A3
:10075000E02DCD016F2D0995F301A781B085ED91B5
:10076000FC9111970190F081E02DCD016B2D099541
:10077000F301A781B085ED91FC9111970190F08173
:10078000E02DCD01692D0995F301A781B085ED918B
:10079000FC911197612F772767FD7A950190F08181
:1007A000E02DCD010995F301A781B085ED91FC9174
:1007B00011970190F081E02DCD01602F0995F30193
:1007C000A781B085ED91FC9111970190F081E02D0A
:1007D000CD016E2D0995F301A781B085ED91FC91B6
:1007E00011976D2D772767FD7A950190F081E02DA7
:1007F000CD010995F301A781B085ED91FC91119789
:100800000190F081E02DCD016C2D0995F301A781B8
:10081000B085ED91FC9111970190F081E02DCD0113
:100820006A2D0995F301A781B085ED91FC9111978F
:100830000190F081E02DCD01682D099500E010E0D8
:100840000DC0DC01ED91FC91D201A00FB11F019010
:10085000F081E02D6C9109950F5F1F4FF20101901F
:100860000020E9F73197E419F509D30117968D9126
:100870009C9118970E171F0720F3DC01ED91FC9156
:100880000190F081E02D60E00995C3010E94EF0026
:10089000F3018283CF91DF911F910F91FF90EF9031
:1008A000DF90CF90BF90AF909F908F907F906F9090
:1008B0005F904F9008956F927F928F929F92AF9228
:1008C000BF92CF92DF92EF92FF920F931F93DF932D
:1008D000CF93CDB7DEB73C01F62ED42E922E682DE5
:1008E0000E945303F301A781B085ED91FC9111970C
:1008F0000190F081E02DCD0163E50995F301A78119
:10090000B085ED91FC9111970190F081E02DCD0122
:100910006F2D0995F301A781B085ED91FC91119799
:100920000190F081E02DCD016D2D0995F301A78196
:10093000B085ED91FC9111970190F081E02DCD01F2
:10094000692D0995F301A781B085ED91FC9111976F
:10095000612F772767FD7A950190F081E02DCD0119
:100960000995F301A781B085ED91FC911197019054
:10097000F081E02DCD01602F0995F301A781B085AD
:10098000ED91FC9111970190F081E02DCD016E2D3C
:100990000995F301A781B085ED91FC911197019024
:1009A000F081E02DCD016C2D099500E010E00DC027
:1009B000DC01ED91FC91D501A00FB11F0190F081F8
:1009C000E02D6C9109950F5F1F4FF50101900020FC
:1009D000E9F73197EA19FB09D30117968D919C919C
:1009E00018970E171F0720F3DC01ED91FC91019081
:1009F000F081E02D60E00995C3010E94EF00F30152
:100A00008283CF91DF911F910F91FF90EF90DF9044
:100A1000CF90BF90AF909F908F907F906F900895F0
:100A20008F929F92AF92BF92CF92DF92EF92FF92FE
:100A30000F931F93CF93DF934C01D62EB42EA22E8B
:100A40006C2D0E945303F401A781B085ED91FC91B8
:100A500011970190F081E02DCD0163E70995F40134
:100A6000A781B085ED91FC9111970190F081E02D67
:100A7000CD016D2D0995F401A781B085ED91FC9113
:100A800011970190F081E02DCD016B2D0995F401B6
:100A9000A781B085ED91FC9111970190F081E02D37
:100AA000CD016A2D0995F401A781B085ED91FC91E6
:100AB0001197612F772767FD7A950190F081E02DDE
:100AC000CD010995F401A781B085ED91FC911197B5
:100AD0000190F081E02DCD01602F099500E010E03C
:100AE0000DC0E881F981D701A00FB11F0190F081FD
:100AF000E02DCE016C9109950F5F1F4FF70101901A
:100B00000020E9F73197EE19FF09D4011796CD912E
:100B1000DC9118970E171F0720F3E881F9810190E7
:100B2000F081E02DCE0160E00995C4010E94EF0044
:100B3000F4018283DF91CF911F910F91FF90EF908D
:100B4000DF90CF90BF90AF909F908F900895FF92CD
:100B50000F931F938C01F62EFC01A781B085ED91B8
:100B6000FC9111970190F081E02DCD0166E409958B
:100B7000F801A781B085ED91FC9111970190F0816A
:100B8000E02DCD016F2D0995C8010E94EF00F801FD
:100B900082831F910F91FF9008956F927F928F92A1
:100BA000AF92CF92DF92EF92FF920F931F93DF935A
:100BB000CF93CDB7DEB73C01162FD22E642F0E9403
:100BC000A705C301682D0E945303F301A781B085D7
:100BD000ED91FC9111970190F081E02DCD0164E73A
:100BE0000995F301A781B085ED91FC9111970190D2
:100BF000F081E02DCD01612F0995F301A781B0852A
:100C0000ED91FC9111970190F081E02DCD016D2DBA
:100C10000995F301A781B085ED91FC9111970190A1
:100C2000F081E02DCD01602F0995F301A781B085FA
:100C3000ED91FC9111976F2D772767FD7A950190C3
:100C4000F081E02DCD010995F301A781B085ED91EB
:100C5000FC9111970190F081E02DCD016E2D099549
:100C6000F301A781B085ED91FC9111970190F0817E
:100C7000E02DCD016C2D0995F301A781B085ED9193
:100C8000FC9111970190F081E02DCD016A2D09951D
:100C9000C3010E94EF00F3018283CF91DF911F9186
:100CA0000F91FF90EF90DF90CF90AF908F907F905B
:100CB0006F900895AF92BF92CF92DF92EF92FF9222
:100CC0000F931F935C01162FD22E642F0E94A7054D
:100CD000C5016C2D0E945303F501A781B085ED91EC
:100CE000FC9111970190F081E02DCD0164E509950B
:100CF000F501A781B085ED91FC9111970190F081EC
:100D0000E02DCD01612F0995F501A781B085ED9109
:100D1000FC9111970190F081E02DCD016D2D099589
:100D2000F501A781B085ED91FC9111970190F081BB
:100D3000E02DCD01602F0995F501A781B085ED91DA
:100D4000FC9111976F2D772767FD7A950190F081BF
:100D5000E02DCD010995F501A781B085ED91FC91BC
:100D600011970190F081E02DCD016E2D0995C501FF
:100D70000E94EF00F50182831F910F91FF90EF9089
:100D8000DF90CF90BF90AF900895AF92BF92CF9277
:100D9000DF92EF92FF920F931F935C01162FF42EB8
:100DA000D22EFC01A781B085ED91FC9111970190A5
:100DB000F081E02DCD0163E60995F501A781B085AD
:100DC000ED91FC9111970190F081E02DCD01612F03
:100DD0000995F501A781B085ED91FC9111970190DE
:100DE000F081E02DCD016F2D0995F501A781B0852A
:100DF000ED91FC9111970190F081E02DCD016D2DC9
:100E00000995F501A781B085ED91FC9111970190AD
:100E1000F081E02DCD01602F0995F501A781B08506
:100E2000ED91FC9111970190F081E02DCD016E2D97
:100E30000995F501A781B085ED91FC91119701907D
:100E4000F081E02DCD016C2D0995C5010E94EF00C8
:100E5000F50182831F910F91FF90EF90DF90CF906B
:100E6000BF90AF900895EF92FF920F931F938C0164
:100E70007B01FC01A781B085ED91FC911197019058
:100E8000F081E02DCD0162E40995F801A781B085DC
:100E9000ED91FC9111976F2D772767FD7A95019061
:100EA000F081E02DCD010995F801A781B085ED9184
:100EB000FC9111970190F081E02DCD016E2D0995E7
:100EC000C8010E94EF00F80182831F910F91FF90EB
:100ED000EF900895FF920F931F938C01F62EFC0163
:100EE000A781B085ED91FC9111970190F081E02DE3
:100EF000CD0160E70995F801A781B085ED91FC91DE
:100F000011970190F081E02DCD016F2D0995C80159
:100F10000E94EF00F80182831F910F91FF900895C6
:100F20006F927F928F92AF92BF92CF92DF92EF92A9
:100F3000FF920F931F93DF93CF93CDB7DEB73C01A2
:100F4000162FF42ED22E682D0E946A07F301A78176
:100F5000B085ED91FC9111970190F081E02DCD01CC
:100F600067E40995F301A781B085ED91FC91119794
:100F70000190F081E02DCD01612F0995F301A7814A
:100F8000B085ED91FC9111970190F081E02DCD019C
:100F90006F2D0995F301A781B085ED91FC91119713
:100FA0000190F081E02DCD016D2D0995F301A78110
:100FB000B085ED91FC9111970190F081E02DCD016C
:100FC000602F0995F301A781B085ED91FC911197F0
:100FD0000190F081E02DCD016E2D0995F301A781DF
:100FE000B085ED91FC9111970190F081E02DCD013C
:100FF0006C2D0995F301A781B085ED91FC911197B6
:101000006B2D772767FD7A950190F081E02DCD015A
:101010000995F301A781B085ED91FC91119701909D
:10102000F081E02DCD016A2D0995C3010E94EF00EA
:10103000F3018283CF91DF911F910F91FF90EF9089
:10104000DF90CF90BF90AF908F907F906F9008957A
:10105000AF92BF92CF92DF92EF92FF920F931F93C6
:101060006C01F62EB42EA22E6E2D0E946A07F60198
:10107000A781B085ED91FC9111970190F081E02D51
:10108000CD0163E40995F601A781B085ED91FC914E
:1010900011970190F081E02DCD016F2D0995F6019A
:1010A000A781B085ED91FC9111970190F081E02D21
:1010B000CD016B2D0995F601A781B085ED91FC91CD
:1010C00011970190F081E02DCD016A2D0995F6016F
:1010D000A781B085ED91FC911197612F772767FD6E
:1010E0007A950190F081E02DCD010995F601A78157
:1010F000B085ED91FC9111970190F081E02DCD012B
:10110000602F0995C6010E94EF00F60182831F91AE
:101110000F91FF90EF90DF90CF90BF90AF90089528
:101120009F92AF92BF92CF92DF92EF92FF920F9376
:101130001F935C01162FD42E922E6C2D0E946A07ED
:10114000F501A781B085ED91FC9111970190F08197
:10115000E02DCD0162E70995F501A781B085ED91FC
:10116000FC9111970190F081E02DCD01612F09953F
:10117000F501A781B085ED91FC9111970190F08167
:10118000E02DCD016D2D0995F501A781B085ED917B
:10119000FC9111970190F081E02DCD01692D099509
:1011A000F501A781B085ED91FC9111970190F08137
:1011B000E02DCD01602F0995F501A781B085ED9156
:1011C000FC9111976F2D772767FD7A950190F0813B
:1011D000E02DCD010995F501A781B085ED91FC9138
:1011E00011970190F081E02DCD016E2D0995C5017B
:1011F0000E94EF00F50182831F910F91FF90EF9005
:10120000DF90CF90BF90AF909F900895AF92BF9224
:10121000CF92DF92EF92FF920F931F936C01162FE4
:10122000B42EA22EFC01A781B085ED91FC911197FF
:101230000190F081E02DCD016CE40995F601A781C4
:10124000B085ED91FC9111970190F081E02DCD01D9
:10125000612F0995F601A781B085ED91FC91119759
:101260000190F081E02DCD016B2D0995F601A7814C
:10127000B085ED91FC9111970190F081E02DCD01A9
:101280006A2D0995F601A781B085ED91FC91119722
:101290000190F081E02DCD01602F0995F601A78125
:1012A000B085ED91FC9111976F2D772767FD7A95A9
:1012B0000190F081E02DCD010995F601A781B0855F
:1012C000ED91FC9111970190F081E02DCD016E2DF3
:1012D0000995C6010E94EF00F60182831F910F91CC
:1012E000FF90EF90DF90CF90BF90AF900895CF9296
:1012F000DF92EF92FF920F931F938C01D62EC42E94
:101300007901FC01A781B085ED91FC9111970190C5
:10131000F081E02DCD0160E50995F801A781B08548
:10132000ED91FC9111970190F081E02DCD016D2D93
:101330000995F801A781B085ED91FC911197019075
:10134000F081E02DCD016C2D0995F801A781B085C4
:10135000ED91FC9111976F2D772767FD7A9501909C
:10136000F081E02DCD010995F801A781B085ED91BF
:10137000FC9111970190F081E02DCD016E2D099522
:10138000C8010E94EF00F80182831F910F91FF9026
:10139000EF90DF90CF9008950F931F938C01FC0185
:1013A000A781B085ED91FC9111970190F081E02D1E
:1013B000CD0165E40995C8010E94EF00F801828320
:1013C0001F910F910895AF92BF92CF92DF92EF924B
:1013D000FF920F931F937C01862F59016A01F70139
:1013E000108707836083718361E00E940B0FF70110
:1013F000808160E00E942B0F6EE170E080E090E061
:101400000E94A70EF701808161E00E942B0F68EE19
:1014100073E080E090E00E94A70EF701878190853D
:10142000B601A5010E94B50FF701A781B085ED9126
:10143000FC9111970190F081E02DCD0165E50995B2
:10144000C7010E94EF00F7018283C7010E941F01BC
:10145000C7010E94CC091F910F91FF90EF90DF9080
:10146000CF90BF90AF90089588E891E00E94EE0081
:1014700008954F925F926F927F928F929F92AF9258
:10148000BF92CF92DF92EF92FF920F931F93109231
:10149000910130C060918B0170918C01882777FD9C
:1014A0008095982F0E949F11E62E60918D0170917A
:1014B0008E01882777FD8095982F0E949F11F62E28
:1014C00060E070E081E090E00E949F118B019C0140
:1014D00088E891E06E2D4F2D98010E9477096AE00F
:1014E00070E080E090E00E94A70E809191018F5FF4
:1014F0008093910180919101843660F268EE73E0EF
:1015000080E090E00E94A70E88E891E00E94CC095C
:1015100088E891E060E040E020918B0100918D012E
:10152000EE24EA94FE2C0E94060988E891E060917E
:101530008B0140E020E000918D010E94060968EED9
:1015400073E080E090E00E94A70E10929401109248
:101550009301109291011AC0401BE0909301F0900A
:10156000940188E891E060E020918B010E940609D7
:1015700080919301909194010196909394018093AE
:101580009301809191018E5F80939101009191016F
:1015900040918D0150918E01802F90E08417950726
:1015A000DCF2109291011AC0621BE0909301F0905E
:1015B000940188E891E040E000918D010E940609C5
:1015C00080919301909194018096909394018093DF
:1015D0009301809191018C5F809391012091910101
:1015E00060918B0170918C01822F90E08617970794
:1015F000DCF268EE73E080E090E00E94A70E88E8DD
:1016000091E00E94CC09109291014EC060918B0133
:1016100070918C01882777FD8095982F0E949F11EB
:10162000E62E60918D0170918E01882777FD80955F
:10163000982F0E949F11F62E60918B0170918C0162
:10164000882777FD8095982F0E949F11162F609113
:101650008D0170918E01882777FD8095982F0E94CB
:101660009F11062F60E070E081E090E00E949F11E2
:101670004B015C0162E070E080E090E00E949F110D
:10168000C62E88E891E06E2D4F2D212F74010E9407
:10169000900864E670E080E090E00E94A70E8091E0
:1016A00091018F5F8093910180919101853008F4C1
:1016B000ADCF68EE73E080E090E00E94A70E88E86E
:1016C00091E00E94CC0982E01EC080918B01909134
:1016D0008C0162E070E00E94E011D62E60E070E0C4
:1016E00081E090E00E949F117B018C012A2D2C1932
:1016F00088E891E06D2D4A2D8701EE240E9428088C
:10170000809191018C5F80939101C09091018091B3
:101710008D0190918E0162E070E00E94E0115B010A
:101720008C2D90E08617970784F268EE73E080E0D6
:1017300090E00E94A70E80918B0190918C0162E055
:1017400070E00E94E011E62E80918D0190918E0153
:1017500062E070E00E94E011C62E88E891E060E04F
:1017600040E02E2D0C2D0E94C50668EE73E080E04F
:1017700090E00E94A70E80918B0190918C0163E014
:1017800070E00E94E011609391012DC010929201CF
:1017900016C088E891E0609191010E9419029C01B5
:1017A0002095309588E891E06091910140919201F7
:1017B0000E947709809192018F5F809392014091FE
:1017C0009201242F30E080918D0190918E0163E091
:1017D00070E00E94E01126173707DCF2809191013A
:1017E0008F5F809391012091910130E080918B0176
:1017F00090918C0163E070E00E94E011660F771F0A
:10180000261737071CF280E10EC0615088E891E08E
:101810000E94E70164E670E080E090E00E94A70E7D
:101820008091910181508093910160919101662393
:1018300061F7109291010FC088E891E00E94E701E2
:1018400064E670E080E090E00E94A70E8091910134
:101850008F5F8093910160919101603168F388E816
:1018600091E00E94CC0988E891E065E00E94E701E0
:101870001092910164C060918B0170918C01882756
:1018800077FD8095982F0E949F11D62E60918D0133
:1018900070918E01882777FD8095982F0E949F1167
:1018A000F62E60918B0170918C01882777FD8095D1
:1018B000982F0E949F11162F60918D0170918E01BB
:1018C000882777FD8095982F0E949F11062F6091A1
:1018D0008B0170918C01882777FD8095982F0E944D
:1018E0009F11E62E60918D0170918E01882777FD02
:1018F0008095982F0E949F11C62E60E070E081E0D5
:1019000090E00E949F112B013C0162E070E080E0BA
:1019100090E00E949F11862E88E891E06D2D4F2D5A
:10192000212F52010E94900764E670E080E090E071
:101930000E94A70E809191018F5F80939101809109
:101940009101853008F497CF68EE73E080E090E075
:101950000E94A70E1092910118C060E070E081E033
:1019600090E00E949F119B01AC0188E891E0B901D1
:101970000E94330764E670E080E090E00E94A70ECA
:10198000809191018F5F80939101809191018530C9
:1019900020F368EE73E080E090E00E94A70E88E8F4
:1019A00091E060E070E00E94330788E891E060E039
:1019B0000E94B50160ED77E080E090E00E94A70E04
:1019C00088E891E061E00E94B50188E891E065E077
:1019D0000E94E70168EE73E080E090E00E94A70EAD
:1019E00088E891E00E94CC0980918B0190918C0154
:1019F00062E070E00E94E011262F80918D019091AD
:101A00008E0162E070E00E94E011062F88E891E00C
:101A100063E043E0E12CF8EFFF2ECC240E94900815
:101A200088E891E061E440E020E000E0EE24EA9400
:101A3000FE2C0E945A0664EF71E080E090E00E9464
:101A4000A70E88E891E061E442E023E0CC24C3944F
:101A50000E945A0664EF71E080E090E00E94A70EB9
:101A600088E891E06AE440E020E00DE0E2E0CE2E7C
:101A700072E0A72E88240E94CD0564EF71E080E01B
:101A800090E00E94A70E88E891E06AE440E02EE131
:101A9000AA24A394882483940E94CD056CED75E05C
:101AA00080E090E00E94A70E88E891E00E94CC09B7
:101AB00080918B0190918C0162E070E00E94E011B6
:101AC000262F80918D0190918E0162E070E00E943E
:101AD000E011062F88E891E063E043E05FE1E52E46
:101AE000F12CCC240E94900888E891E060E040E06E
:101AF00020E00FEF1FEF39E5E32E31E0F32E0E94D7
:101B0000100564EF71E080E090E00E94A70E88E885
:101B100091E060E04FE020E0EE24E394B2E0CB2ED1
:101B2000A2E6AA2EA1E0BA2E0E945B046CED75E03D
:101B300080E090E00E94A70E88E891E00E94CC0926
:101B400000D087E691E0EDB7FEB79283818388E805
:101B500091E061E04AE025E000E018EFEE24CC24BB
:101B6000CA94DC2CAA24A3940E94790381E791E013
:101B7000EDB7FEB79283818388E891E060E04AE0A8
:101B800029E100EE17E0CC24DD24F2E08F2E0E9444
:101B900079030F900F906CED75E080E090E00E946B
:101BA000A70E88E891E00E94CC090F928CE3EDB774
:101BB000FEB7818388E891E060E044E224E204E239
:101BC000E4E2EE2ECC2471E8A72E52E4852E0E948A
:101BD000B70281E8EDB7FEB7818388E891E061E064
:101BE00044E224E23CE3A32E0E94B7020F9088E86F
:101BF00091E060E040E020E000E018EF0E94540235
:101C000088E891E061E048E028E000EE17E00E94FB
:101C100054026CED75E080E090E00E94A70E88E829
:101C200091E00E94CC091F910F91FF90EF90DF90FF
:101C3000CF90BF90AF909F908F907F906F905F906C
:101C40004F900895EF92FF920F931F93B8E8EB2EF9
:101C5000B1E0FB2EC70168E070E020E038EE43E021
:101C600050E002E212E00E94E309C70165E00E9431
:101C7000E701C7010E94900160ED77E080E090E00D
:101C80000E94A70EC7010E94CC091F910F91FF90DF
:101C9000EF9008950E94D10E0E94220E0E94390AF0
:101CA000FDCF1F920F920FB60F9211242F933F93E7
:101CB0008F939F93AF93BF938091990190919A01D5
:101CC000A0919B01B0919C0130919D010196A11DB5
:101CD000B11D232F2D5F2D3720F02D570196A11D0B
:101CE000B11D20939D018093990190939A01A09337
:101CF0009B01B0939C018091950190919601A091D8
:101D00009701B09198010196A11DB11D8093950195
:101D100090939601A0939701B0939801BF91AF91D2
:101D20009F918F913F912F910F900FBE0F901F9019
:101D300018958FB7F8942091990130919A014091AC
:101D40009B0150919C018FBFB901CA010895EF9288
:101D5000FF920F931F937B018C018FB7F8944091F2
:101D6000990150919A0160919B0170919C018FBFE4
:101D70002FB7F8948091990190919A01A0919B01BD
:101D8000B0919C012FBF841B950BA60BB70BE816D7
:101D9000F9060A071B0760F71F910F91FF90EF905C
:101DA0000895789484B5826084BD84B5816084BDD3
:101DB00085B5826085BD85B5816085BDEEE6F0E0C4
:101DC000808181608083E1E8F0E0808182608083AF
:101DD000808181608083E0E8F0E0808181608083A1
:101DE000E1EBF0E0808184608083E0EBF0E08081D3
:101DF00081608083EAE7F0E0808184608083808175
:101E0000826080838081816080838081806880831C
:101E10001092C1000895282F30E0C90186569F4FC7
:101E2000FC0194912A573F4FF9018491882391F046
:101E3000E82FF0E0EE0FFF1FE859FF4FA591B49196
:101E4000662329F48C91909589238C9308958C9125
:101E5000892B8C930895482F50E0CA0182559F4FDB
:101E6000FC012491CA0186569F4FFC0194914A5768
:101E70005F4FFA0134913323D1F1222331F1233022
:101E800021F4809180008F7705C0243031F4809157
:101E900080008F7D8093800018C0213019F484B5B4
:101EA0008F7704C0223021F484B58F7D84BD0DC0AE
:101EB000263021F48091B0008F7705C0273029F4B7
:101EC0008091B0008F7D8093B000E32FF0E0EE0FA3
:101ED000FF1FEE58FF4FA591B491662329F48C9112
:101EE000909589238C9308958C91892B8C930895D8
:101EF0001F920F920FB60F9211242F933F934F937F
:101F00005F936F937F938F939F93AF93BF93EF9361
:101F1000FF934091C600E0911E02F0911F02CF0195
:101F2000019660E870E00E94E0119C01809120021F
:101F3000909121022817390739F0E256FE4F40836D
:101F400030931F0220931E02FF91EF91BF91AF913A
:101F50009F918F917F916F915F914F913F912F91C1
:101F60000F900FBE0F901F9018955F926F927F9207
:101F70008F929F92AF92BF92CF92DF92EF92FF9299
:101F80000F931F93CF93DF93EC013A014B01413440
:101F900082E458078FE0680780E078070CF07FC084
:101FA00060E874E88EE190E0A40193010E941512AC
:101FB0002150304040405040CA01B90122E030E099
:101FC00040E050E00E94151259016A01A6019501F6
:101FD000209530954095509594E0220F331F441F73
:101FE000551F9A95D1F760E074E284EF90E00E946B
:101FF0001512CA01B9012FEF30E040E050E00E9415
:10200000C111A40193010E941512C90181509F4F73
:10201000181619061CF4522E5A9403C055245394D2
:10202000521A60E079E08DE390E0A40193010E94F0
:1020300015122150304040405040CA01B90122E001
:1020400030E040E050E00E94151220953095409518
:10205000509583E0220F331F441F551F8A95D1F7F7
:1020600060E074E284EF90E00E941512CA01B901A9
:102070002FEF30E040E050E00E94C111A401930135
:102080000E941512C90181509F4F181619061CF4A1
:10209000822F815002C081E0821B851500F5E88502
:1020A000F98581E090E00A8802C0880F991F0A94A0
:1020B000E2F7808360E079E08DE390E0A401930192
:1020C0000E9415122150304040405040CA01B901D1
:1020D00022E030E040E050E00E94151204C0E885A4
:1020E000F98510829501EC81FD813083EE81FF81BD
:1020F0002083EA85FB85208141E050E0CA010E84FF
:1021000002C0880F991F0A94E2F7282B2083EA85E2
:10211000FB852081CA010F8402C0880F991F0A9491
:10212000E2F7282B2083EA85FB858081088802C09E
:10213000440F551F0A94E2F7842B8083DF91CF91DF
:102140001F910F91FF90EF90DF90CF90BF90AF90D5
:102150009F908F907F906F905F900895DC01129612
:10216000ED91FC911397E058FF4F81919191805828
:102170009F4F20813181821B930B60E870E00E94A9
:10218000E0110895CF93DF93DC011296ED91FC915D
:102190001397EF01CE57DF4F48815981E058FF4F29
:1021A00080819181E058F0408417950719F42FEF52
:1021B0003FEF0CC0E40FF51F2081CA01019660E8D3
:1021C00070E00E94E0119983888330E0C901DF91BB
:1021D000CF910895FC01A085B18521898C9190E073
:1021E000022E02C0959587950A94E2F780FFF6CFFC
:1021F0000484F585E02D6083089581E891E0909353
:102200002302809322028EE991E09093250280932D
:10221000240285EC90E0909327028093260284ECC0
:1022200090E0909329028093280280EC90E09093B4
:102230002B0280932A0281EC90E090932D028093F0
:102240002C0286EC90E090932F0280932E0284E083
:102250008093300283E08093310287E080933202E2
:1022600085E08093330281E08093340208950F93D8
:102270001F93CF93DF938C01EB0109C02196D80106
:10228000ED91FC910190F081E02DC80109956881E4
:102290006623A1F7DF91CF911F910F910895EF92DF
:1022A000FF920F931F93CF93DF938C017B01EA0181
:1022B0000CC0D7016D917D01D801ED91FC91019089
:1022C000F081E02DC80109952197209791F7DF91C2
:1022D000CF911F910F91FF90EF900895DC01ED9148
:1022E000FC910280F381E02D099508950F931F93CF
:1022F0008C01DC01ED91FC910190F081E02D6DE00D
:102300000995D801ED91FC910190F081E02DC80173
:102310006AE009951F910F9108950F931F938C0107
:102320000E946E11C8010E9476111F910F910895AD
:1023300070E0382F20E0622B732BCB010895EF92D1
:10234000FF920F931F937B018C016115710581052D
:10235000910529F420E030E040E050E00BC00E94FD
:10236000E000A80197010E941512AC01CB01DA012F
:102370009C01AD01B901CA011F910F91FF90EF902F
:102380000895629FD001739FF001829FE00DF11DBF
:10239000649FE00DF11D929FF00D839FF00D749FDF
:1023A000F00D659FF00D9927729FB00DE11DF91F8B
:1023B000639FB00DE11DF91FBD01CF0111240895E8
:1023C00097FB092E07260AD077FD04D049D006D006
:1023D00000201AF4709561957F4F0895F6F7909557
:1023E00081959F4F0895A1E21A2EAA1BBB1BFD01E8
:1023F0000DC0AA1FBB1FEE1FFF1FA217B307E407E4
:10240000F50720F0A21BB30BE40BF50B661F771F3B
:10241000881F991F1A9469F760957095809590951B
:102420009B01AC01BD01CF01089597FB092E052644
:102430000ED057FD04D0D7DF0AD0001C38F45095D9
:102440004095309521953F4F4F4F5F4F0895F6F7D8
:1024500090958095709561957F4F8F4F9F4F089510
:10246000AA1BBB1B51E107C0AA1FBB1FA617B707BA
:1024700010F0A61BB70B881F991F5A95A9F78095D6
:102480009095BC01CD010895EE0FFF1F0590F491CA
:10249000E02D09942F923F924F925F926F927F921C
:1024A0008F929F92AF92BF92CF92DF92EF92FF9264
:1024B0000F931F93CF93DF93CDB7DEB7CA1BDB0B10
:1024C0000FB6F894DEBF0FBECDBF09942A883988B5
:1024D00048885F846E847D848C849B84AA84B984BC
:1024E000C884DF80EE80FD800C811B81AA81B981C8
:1024F000CE0FD11D0FB6F894DEBF0FBECDBFED01DC
:062500000895F894FFCFDE
:1025060053657269616C2074696D656F75740064DA
:1025160075726174696F6E3A200064656661756CE8
:10252600745F6F6374617665200062706D3A200097
:1025360077686F6C656E6F74652000206D73005050
:102546006C6179696E673A200020280029200050C6
:10255600617573696E673A2000537472696E6720FD
:1025660031005445535400756E707265737365641B
:10257600007072657373656400010000000000005E
:0825860000EA1037114F1100AB
:00000001FF
